:020000040800F2
:10000000940400202D0300089903000899030008B8
:1000100099030008990300089903000800000000F4
:10002000000000000000000000000000990300082C
:1000300099030008000000009903000899030008D4
:100040009903000899030008990300089903000820
:100050009903000899030008990300089903000810
:1000600099030008990300085D130008990300082C
:1000700099030008990300089903000899030008F0
:100080009903000899030008990300080000000084
:1000900000000000000000000000000099030008BC
:1000A00099030008990300089903000899030008C0
:1000B000A113000899030008990300089903000898
:1000C00099030008990300089903000899030008A0
:1000D0009903000899030008990300089903000890
:1000E0009903000899030008990300080000000024
:1000F0000000000000000000000000000000000000
:1001000000000000000000000000000000000000EF
:100110000000000000000000990300089903000897
:100120005FF808F180B485B000AF786039604FF0B7
:100130000003FB817B681B88FB817A684FF4305396
:10014000C4F201039A421FD07A684FF45053C4F2AC
:1001500001039A4218D07B68B3F1804F14D07A68BB
:100160004FF48063C4F200039A420DD07A684FF4D2
:100170000063C4F200039A4206D07A684FF44063E9
:10018000C4F200039A4208D1FB8923F07003FB817B
:100190003B685A88FB891343FB817A684FF480538C
:1001A000C4F200039A420FD07A684FF4A053C4F20D
:1001B00000039A4208D0FB8923F44073FB813B681B
:1001C000DA88FB891343FB817B68FA891A803B68D4
:1001D0009A887B689A853B681A887B681A857A6852
:1001E0004FF43053C4F201039A421BD07A684FF4A3
:1001F0005053C4F201039A4214D07A684FF48043FA
:10020000C4F201039A420DD07A684FF48843C4F2D5
:1002100001039A4206D07A684FF49043C4F2010376
:100220009A4204D13B681B7A1A467B681A867B681F
:100230004FF001029A8207F11407BD4680BC704757
:1002400080B483B000AF78600B46FB70FB78002B66
:1002500008D07B681B889BB243F001039AB27B688D
:100260001A8007E07B681B889BB223F001039AB2D7
:100270007B681A8007F10C07BD4680BC704700BF41
:1002800080B483B000AF786013460A467A807B70F2
:100290007B78002B08D07B689B899AB27B881343BC
:1002A0009AB27B689A810AE07B689B899AB27B88C4
:1002B0006FEA03039BB213409AB27B689A8107F1FD
:1002C0000C07BD4680BC704780B483B000AF786037
:1002D0000B46FB70FB78002B08D07B681B889BB219
:1002E00043F080039AB27B681A8007E07B681B8822
:1002F0009BB223F080039AB27B681A8007F10C0747
:10030000BD4680BC704700BF80B483B000AF78604A
:100310000B467B807B886FEA03039AB27B681A8264
:1003200007F10C07BD4680BC704700BF80B582B0A6
:1003300000AF42F24423C0F600037B6040F20003AA
:10034000C2F200033B600BE07B681A683B681A60EE
:100350003B6803F104033B607B6803F104037B60AB
:100360003A6840F26C03C2F200039A42ECD30848A8
:1003700008494FF000028842B8BF40F8042BFADB6E
:1003800000F00EF800F04EFE07F10807BD4680BDF4
:100390006C0000209800002080B400AFFEE700BF92
:1003A00080B500AF4FF48053C4F202034FF4805283
:1003B000C4F20202126842F001021A604FF4805245
:1003C000C4F202024FF48053C4F202035B68194680
:1003D0004FF00003CFF6FF030B4053604FF4805300
:1003E000C4F202034FF48052C4F20202126822F0F7
:1003F000847222F480321A604FF48053C4F20203F4
:100400004FF48052C4F20202126822F480221A6071
:100410004FF48053C4F202034FF48052C4F202023C
:10042000526822F4FE025A604FF48053C4F2020371
:100430004FF41F029A604FF48053C4F202034FF04E
:100440000002DA6200F008F84FF46D43CEF20003C8
:100450004FF000629A6080BD80B500AF00F002F8F6
:1004600080BD00BF80B483B000AF4FF000037B605D
:100470004FF000033B604FF48053C4F202034FF48B
:100480008052C4F20202126842F480321A604FF4C1
:100490008053C4F202031B6803F400333B607B68A3
:1004A00003F101037B603B68002B03D17B68B3F54C
:1004B000A06FECD14FF48053C4F202031B6803F425
:1004C0000033002B03D04FF001033B6002E04FF0FC
:1004D00000033B603B68012B6DD14FF48053C4F2A5
:1004E00002034FF48052C4F2020252685A604FF481
:1004F0008053C4F202034FF48052C4F202025268E5
:100500005A604FF48053C4F202034FF48052C4F295
:10051000020252685A604FF48053C4F202034FF44F
:100520008052C4F20202526822F47C125A604FF4E4
:100530008053C4F202034FF48052C4F202025268A4
:1005400042F498125A604FF48053C4F202034FF4FD
:100550008052C4F20202126842F080721A6000BF38
:100560004FF48053C4F202031B6803F00073002BA6
:10057000F6D04FF48053C4F202034FF48052C4F219
:100580000202526822F003025A604FF48053C4F210
:1005900002034FF48052C4F20202526842F0020297
:1005A0005A6000BF4FF48053C4F202035B6803F04B
:1005B0000C03082BF6D107F10C07BD4680BC704731
:1005C00080B483B000AF0346FB71FB79A3F1A803AD
:1005D000572B00F2BB8101A252F823F06D070008EF
:1005E0004D0900084D0900084D0900084D09000893
:1005F0004D0900084D0900084D0900084D09000883
:100600004D0900084D0900084D0900084D09000872
:100610004D0900084D0900084D090008750800083B
:100620004D0900084D0900084D0900084D09000852
:100630004D0900084D0900084D0900083D07000854
:10064000450700084D070008550700085D0700082A
:1006500065070008750700087D0700088507000882
:100660008D070008950700089D070008A5070008EA
:10067000AD070008B5070008BD070008C50700085A
:10068000CD070008D5070008DD070008E5070008CA
:10069000ED070008F5070008FD0700080508000839
:1006A0000D080008150800081D08000825080008A6
:1006B0002D080008350800083D0800084508000816
:1006C0004D080008550800085D0800086508000886
:1006D0006D0800087D080008850800088D080008DE
:1006E000950800089D080008A5080008AD08000846
:1006F000B5080008BD080008C5080008CD080008B6
:10070000D5080008DD080008E5080008ED08000825
:10071000F5080008FD080008050900080D09000893
:10072000150900081D090008250900082D09000801
:10073000350900083D090008450900084FF041034C
:10074000FB7103E14FF0A003FB71FFE04FF04203A8
:10075000FB71FBE04FF0A103FB71F7E04FF0E0030A
:10076000FB71F3E04FF04503FB71EFE04FF0A203A4
:10077000FB71EBE04FF0A303FB71E7E04FF0A40344
:10078000FB71E3E04FF0A503FB71DFE04FF0A60340
:10079000FB71DBE04FF04B03FB71D7E04FF0A70399
:1007A000FB71D3E04FF04D03FB71CFE04FF04803F6
:1007B000FB71CBE04FF04F03FB71C7E04FF0A80394
:1007C000FB71C3E04FF05003FB71BFE04FF04303F8
:1007D000FB71BBE04FF05403FB71B7E04FF0A9038E
:1007E000FB71B3E04FF0AA03FB71AFE04FF0580389
:1007F000FB71ABE04FF0E103FB71A7E04FF0AB03FF
:10080000FB71A3E04FF0AC03FB719FE04FF0E203FC
:10081000FB719BE04FF0AD03FB7197E04FF0AE032F
:10082000FB7193E04FF06203FB718FE04FF0AF0379
:10083000FB718BE04FF0B003FB7187E04FF0B10329
:10084000FB7183E04FF06103FB717FE04FF0B20377
:10085000FB717BE04FF0B303FB7177E04FF0B40323
:10086000FB7173E04FF0E303FB716FE04FF0650342
:10087000FB716BE04FF0A203FB7167E04FF0B60332
:10088000FB7163E04FF0B703FB715FE04FF0B8031B
:10089000FB715BE04FF0B903FB7157E04FF0BA0317
:1008A000FB7153E04FF0BB03FB714FE04FF0BC0313
:1008B000FB714BE04FF0BD03FB7147E04FF06F035E
:1008C000FB7143E04FF0BE03FB713FE04FF070035C
:1008D000FB713BE04FF06303FB7137E04FF0BF0368
:1008E000FB7133E04FF07903FB712FE04FF0E4032D
:1008F000FB712BE04FF07803FB7127E04FF0E5032D
:10090000FB7123E04FF0C003FB711FE04FF0C10308
:10091000FB711BE04FF0E603FB7117E04FF0C203E1
:10092000FB7113E04FF0C303FB710FE04FF0C40302
:10093000FB710BE04FF0C503FB7107E04FF0C603FE
:10094000FB7103E04FF0C703FB7100BFFB79184652
:1009500007F10C07BD4680BC704700BF80B483B070
:1009600000AF42F210737B6003E07B6803F1FF335A
:100970007B607B68002BF8D107F10C07BD4680BC7B
:10098000704700BF80B500AF4FF48053C4F201033D
:100990004FF48052C4F2010252685A604FF4805200
:1009A000C4F201024FF48053C4F201031B681946DC
:1009B00041F21113C0F211030B4313604FF4805343
:1009C000C4F201034FF48052C4F2010252685A602B
:1009D0004FF48052C4F201024FF48053C4F2010379
:1009E0001B68194641F21113CFF611730B401360C7
:1009F00000F092F84FF001004FF001014FF00002BB
:100A000000F04EF800F042F84FF006004FF0000101
:100A100000F0ECF880BD00BF80B582B000AF0246A8
:100A20000B46FA71BB71BB79002B09D1FB7963F0DE
:100A30007F03DBB218464FF0000100F0D7F808E062
:100A4000FB7963F03F03DBB218464FF0000100F082
:100A5000CDF807F10807BD4680BD00BF80B582B064
:100A600000AF78600AE07B681B7818464FF0010100
:100A700000F0BCF87B6803F101037B607B681B78A6
:100A8000002BF0D107F10807BD4680BD80B500AF4F
:100A90004FF001004FF0000100F0A8F880BD00BF4A
:100AA00080B582B000AF13460246FA710A46BA71A9
:100AB0007B71FB79002B06D14FF008004FF000014D
:100AC00000F094F823E0BB79002B10D17B79002B48
:100AD00006D14FF00C004FF0000100F087F816E04F
:100AE0004FF00D004FF0000100F080F80FE07B792F
:100AF000002B06D14FF00E004FF0000100F076F809
:100B000005E04FF00F004FF0000100F06FF807F123
:100B10000807BD4680BD00BF80B500AFFFF71EFFD0
:100B2000FFF71CFFFFF71AFF4FF48053C4F20103D5
:100B30004FF47C121A614FF48053C4F201034FF05A
:100B400008021A614FF48053C4F201034FF001020E
:100B50001A61FFF703FF4FF48053C4F201034FF40F
:100B600080321A61FFF7FAFE4FF48053C4F201039A
:100B70004FF47C121A614FF48053C4F201034FF01A
:100B800008021A614FF48053C4F201034FF00102CE
:100B90001A61FFF7E3FE4FF48053C4F201034FF4F0
:100BA00080321A61FFF7DAFE4FF48053C4F201037A
:100BB0004FF47C121A614FF48053C4F201034FF0DA
:100BC00020021A614FF48053C4F201034FF0010276
:100BD0001A61FFF7C3FE4FF48053C4F201034FF4D0
:100BE00080321A61FFF7BAFE80BD00BF80B582B0C7
:100BF00000AF02460B46FA71BB714FF48053C4F24A
:100C000001034FF47C121A61BB79002B0FD04FF413
:100C10008053C4F201034FF002021A61FB79A02B4A
:100C200005D9FB791846FFF7CBFC0346FB71FB792E
:100C300003F01003002B06D04FF48053C4F20103DD
:100C40004FF004021A61FB7903F02003002B06D059
:100C50004FF48053C4F201034FF008021A61FB798C
:100C600003F04003002B06D04FF48053C4F201037D
:100C70004FF010021A61FB795BB2002B06DA4FF4D9
:100C80008053C4F201034FF020021A614FF48053E5
:100C9000C4F201034FF001021A61FFF75FFE4FF447
:100CA0008053C4F201034FF480321A61FFF756FEFD
:100CB0004FF48053C4F201034FF470121A61FB79B0
:100CC00003F00103DBB2002B06D04FF48053C4F2D3
:100CD00001034FF004021A61FB7903F00203002BB9
:100CE00006D04FF48053C4F201034FF008021A619A
:100CF000FB7903F00403002B06D04FF48053C4F2B9
:100D000001034FF010021A61FB7903F00803002B76
:100D100006D04FF48053C4F201034FF020021A6151
:100D20004FF48053C4F201034FF001021A61FFF740
:100D300015FE4FF48053C4F201034FF480321A6160
:100D4000FFF70CFE07F10807BD4680BD80B489B0EF
:100D500000AF786039604FF00003FB614FF0000393
:100D60003B614FF00003BB614FF00003FB604FF0AD
:100D700000037B614FF00003BB603B68DB7803F04E
:100D80000F03FB613B68DB7803F01003002B04D0FA
:100D90003B689B78FA691343FB613B681B88DBB2B5
:100DA000002B4ED07B681B687B614FF00003BB615A
:100DB00041E0BB694FF0010202FA03F3FB603B68BC
:100DC0001B881A46FB6813403B613A69FB689A42EC
:100DD0002DD1BB694FEA8303FB60FB684FF00F0224
:100DE00002FA03F3BB60BB686FEA03037A6913403E
:100DF0007B61FB68FA6902FA03F37A6913437B614A
:100E00003B68DB78282B07D1BB694FF0010202FA5F
:100E100003F27B685A610AE03B68DB78482B06D115
:100E2000BB694FF0010202FA03F27B681A61BB69E9
:100E300003F10103BB61BB69072BBAD97B687A69EF
:100E40001A603B681B88FF2B53D97B685B687B610A
:100E50004FF00003BB6146E0BB6903F108034FF0AC
:100E6000010202FA03F3FB603B681B881A46FB6829
:100E700013403B613A69FB689A4230D1BB694FEA43
:100E80008303FB60FB684FF00F0202FA03F3BB60C1
:100E9000BB686FEA03037A6913407B61FB68FA69F8
:100EA00002FA03F37A6913437B613B68DB78282BF2
:100EB00008D1BB6903F108034FF0010202FA03F203
:100EC0007B685A613B68DB78482B08D1BB6903F12A
:100ED00008034FF0010202FA03F27B681A61BB6952
:100EE00003F10103BB61BB69072BB5D97B687A6944
:100EF0005A6007F12407BD4680BC704780B485B0B6
:100F000000AF78600B467B804FF00003FB737B687B
:100F10009B681A467B881340002B03D04FF00103D7
:100F2000FB7302E04FF00003FB73FB7B184607F1F5
:100F30001407BD4680BC704780B483B000AF7860B2
:100F40000B467B807A887B681A6107F10C07BD46E7
:100F500080BC704780B483B000AF78600B467B8064
:100F60007A887B685A6107F10C07BD4680BC7047E0
:100F700090B484B000AF02460B46FA71BB714FF0DB
:100F80000003FB60BB7903F003034FEA83034FF0D8
:100F90000F0202FA03F3FB604FF00003C4F20103F7
:100FA000BA794FEA9202D2B210464FF00002C4F270
:100FB0000102B9794FEA9101C9B201F1020152F877
:100FC00021201146FA686FEA0202114000F1020284
:100FD00043F822104FF00003C4F20103BA794FEA3C
:100FE0009202D2B210464FF00002C4F20102B97967
:100FF0004FEA9101C9B201F1020152F821201146D4
:10100000FC79BA7902F003024FEA820204FA02F292
:10101000114300F1020243F8221007F11007BD4608
:1010200090BC704780B500AF00F040F800F066F863
:1010300000F0B0F800F0DCF800F010F9FFF7A2FCC7
:101040004FF001004FF001014FF00102FFF728FDC2
:1010500000F0E8F900F0EEFA40F27403C2F2000387
:101060001A6840F23C03C2F2000353F822301846DB
:1010700000F05CF900F02AF8FFF708FD42F22020AA
:10108000C0F60000FFF7EAFC4FF000004FF001014E
:10109000FFF7C2FC00E000BF4FF4804000F014FBFB
:1010A0000346002BF7D100F08BFDF4E780B500AFCD
:1010B0004FF01D004FF0010100F02AFD4FF001003C
:1010C0004FF0010100F050FD80BD00BF80B582B03F
:1010D00000AF4FF010033B604FF000033B714FF047
:1010E00008037B714FF00103BB713B46184600F0CB
:1010F00091FD07F10807BD4680BD00BF80B582B0F5
:1011000000AF4FF4F843BB804FF00403FB7107F1CD
:1011100004034FF44060C4F201001946FFF716FEC5
:101120004FF01003FB714FF00103BB714FF440739C
:10113000BB8007F104034FF48050C4F2010019464C
:10114000FFF704FE4FF01003BB804FF00403FB7168
:1011500007F104034FF40060C4F201001946FFF7E1
:10116000F5FD4FF000004FF00401FFF701FF4FF0D5
:101170000203BB804FF00003FB7107F104034FF43F
:101180000060C4F201001946FFF7E0FD07F108070F
:10119000BD4680BD80B582B000AF4FF4A06000F0C6
:1011A00095FF4FF00A033B714FF001037B714FF045
:1011B0000103BB714FF00103FB7107F104031846F3
:1011C00000F098FF4FF01C033B714FF002037B715E
:1011D0004FF00203BB714FF00103FB7107F10403F1
:1011E000184600F087FF07F10807BD4680BD00BF25
:1011F00080B500AF40F28003C2F200034FF0070257
:101200009A8040F28003C2F2000340F2E7321A8073
:1012100040F28003C2F200034FF00002DA8040F295
:101220008003C2F200034FF000025A804FF080406A
:101230004FF00101FFF748F84FF080404FF00101F7
:101240004FF00102FFF71CF84FF0804040F28001A0
:10125000C2F20001FEF766FF80BD00BF80B586B018
:1012600000AF4FF4004000F033FC4FF400704FF03B
:10127000010100F04DFC4FF000037B604FF00003D4
:101280003B724FF000037B724FF46023FB604FF022
:1012900000033B614FF001033B754FF41050C4F263
:1012A00001004FF001014FF001024FF0030300F085
:1012B0002FFE07F104034FF41050C4F20100194649
:1012C00000F05AFD4FF41050C4F201004FF001013C
:1012D00000F0AAFD4FF41050C4F2010000F0C0FD70
:1012E00000BF4FF41050C4F2010000F0C9FD0346E6
:1012F000002BF6D14FF41050C4F2010000F0DCFDD9
:1013000000BF4FF41050C4F2010000F0E5FD0346A9
:10131000002BF6D14FF41050C4F201004FF0010140
:1013200000F082FD07F11807BD4680BD80B582B090
:1013300000AF78607B689AB240F28003C2F200038B
:101340009A804FF0804040F28001C2F20001FEF727
:10135000E9FE07F10807BD4680BD00BF80B500AFBC
:101360004FF080404FF00101FEF76AFF4FF48050CC
:10137000C4F201004FF40071FFF7DEFD4FF0FA00F8
:1013800000F092FB4FF48050C4F201004FF4007162
:10139000FFF7E0FD4FF0100000F0DEFC80BD00BF65
:1013A00080B500AF40F27003C2F200034FF00102BB
:1013B0001A704FF080404FF00001FEF741FF4FF4EC
:1013C0008050C4F201004FF48071FFF7B5FD4FF477
:1013D000FA7000F069FB4FF48050C4F201004FF442
:1013E0008071FFF7B7FD4FF4FA7000F05DFB4FF42A
:1013F0008050C4F201004FF48071FFF79DFD4FF45F
:10140000FA7000F051FB4FF48050C4F201004FF429
:101410008071FFF79FFD4FF080404FF00101FEF714
:1014200073FF80BD80B500AFFAE040F22C03C2F23A
:1014300000031B68012B4DD140F26803C2F2000388
:101440001B68012B46D1FFF721FB40F26C03C2F26F
:1014500000031A6840F23003C2F2000353F822304E
:101460001846FFF7FBFA4FF000004FF00101FFF7BD
:10147000D3FA40F27403C2F200031B68184640F22C
:101480009001C2F2000100F0ADFA40F29000C2F209
:101490000000FFF7E3FA4FF003004FF00101FFF700
:1014A000BBFA40F27803C2F200031B68184640F210
:1014B0009001C2F2000100F095FA40F29000C2F2F1
:1014C0000000FFF7CBFA40F22C03C2F200034FF00A
:1014D00000021A604FF4006000F0F6F80346002B9B
:1014E0002CD140F26803C2F200031B68012B25D106
:1014F00040F26C03C2F200031B6803F1010240F2E8
:101500006C03C2F200031A6040F26C03C2F20003E3
:101510001A6840F23803C2F200031B689A4206DDE3
:1015200040F26C03C2F200034FF000021A6040F276
:101530002C03C2F200034FF001021A604FF48060E6
:1015400000F0C2F80346002B27D140F26803C2F234
:1015500000031B68012B20D140F26C03C2F2000390
:101560001B6803F1FF3240F26C03C2F200031A6001
:1015700040F26C03C2F200031B68002B06DA40F253
:101580006C03C2F200034FF001021A6040F22C0318
:10159000C2F200034FF001021A604FF4805000F0D5
:1015A00093F80346002B1FD140F26803C2F20003F8
:1015B0001B68012B18D1FFF769FA40F26C03C2F2E5
:1015C00000031B68002B02D0012B03D005E000F0C4
:1015D000BFF802E000F060F900BF40F22C03C2F255
:1015E00000034FF001021A604FF4005000F06CF855
:1015F0000346002B14D140F26803C2F200031B68BB
:10160000012B0DD140F22C03C2F200034FF0010276
:101610001A6040F26C03C2F200034FF000021A603D
:101620004FF4804000F050F80346002B7FF4FDAEED
:1016300080BD00BF80B500AFFFF728FA40F2780305
:10164000C2F200031B68184640F29001C2F200018A
:1016500000F0C8F942F22820C0F60000FFF7FEF9BA
:1016600040F29000C2F20000FFF7F8F94FF00000DE
:101670004FF00101FFF7D0F942F23020C0F6000030
:10168000FFF7ECF940F27403C2F200031A6840F26B
:101690003C03C2F2000353F82230184640F2900196
:1016A000C2F2000100F09EF940F29000C2F2000088
:1016B000FFF7D4F900BF4FF4804000F005F803466F
:1016C000002BF8D180BD00BF80B582B000AF78603C
:1016D0007B689BB24FF44060C4F201001946FFF7EB
:1016E0000DFC0346002B10D14FF00A0000F01AF851
:1016F0007B689BB24FF44060C4F201001946FFF7CB
:10170000FDFB0346002B03D005E04FF0000304E08F
:101710004FF0010301E04FF00003184607F10807FE
:10172000BD4680BD80B483B000AF786003E07B68C5
:1017300003F1FF337B607B684FF4FA5202FB03F343
:10174000002BF4DC07F10C07BD4680BC704700BFDE
:1017500080B584B000AF4FF00103FB604FF0000391
:10176000BB604FF000037B6040F26803C2F20003ED
:101770004FF000021A60FFF789F942F23820C0F6F4
:101780000000FFF76BF970E0FB68012B12D14FF0FE
:1017900003004FF00101FFF73FF940F20003C2F2EE
:1017A0000003BA6853F822301846FFF757F94FF094
:1017B0000003FB604FF48060FFF786FF0346002BB9
:1017C0000CD1BB6803F10103BB60BB68092B02DDD0
:1017D0004FF00003BB604FF00103FB604FF400606B
:1017E000FFF772FF0346002B0CD1BB6803F1FF33F8
:1017F000BB60BB68002B02DA4FF00903BB604FF0FF
:101800000103FB604FF48050FFF75EFF0346002B9F
:1018100013D14FF47A70FFF785FF4FF48050FFF734
:1018200053FF0346002B08D14FF001037B60FFF705
:101830002DF94FF47A70FFF775FF4FF40050FFF762
:1018400043FF0346002B10D140F27403C2F20003A1
:101850004FF000021A6040F26803C2F200034FF03A
:1018600001021A604FF0000310E07B68002B8BD060
:1018700040F27403C2F20003BA681A6040F26803CF
:10188000C2F200034FF001021A60BB68184607F16C
:101890001007BD4680BD00BF80B584B000AF4FF0DB
:1018A0000103FB604FF00003BB6040F26803C2F22B
:1018B00000034FF000021A604FF000037B60FFF757
:1018C000E5F842F21420C0F60000FFF7C7F873E015
:1018D000FB68012B15D14FF003004FF00101FFF71A
:1018E0009BF8B86840F29001C2F2000100F07AF86B
:1018F00040F29000C2F20000FFF7B0F84FF0000392
:10190000FB604FF48060FFF7DFFE0346002B0CD135
:10191000BB6803F10103BB60BB68632B02DD4FF0C2
:101920000003BB604FF00103FB604FF40060FFF762
:10193000CBFE0346002B0CD1BB6803F1FF33BB6029
:10194000BB68002B02DA4FF06303BB604FF001036A
:10195000FB604FF48050FFF7B7FE0346002B13D116
:101960004FF47A70FFF7DEFE4FF48050FFF7ACFEC5
:101970000346002B08D14FF001037B60FFF786F888
:101980004FF47A70FFF7CEFE4FF40050FFF79CFE45
:101990000346002B10D140F27803C2F200034FF04F
:1019A00000021A6040F26803C2F200034FF0010225
:1019B0001A604FF0000310E07B68002B88D040F2E3
:1019C0006803C2F200034FF001021A6040F278038C
:1019D000C2F20003BA681A60BB68184607F1100724
:1019E000BD4680BDB0B485B000AF786039604FF0BF
:1019F0000003FB604FF00003BB607B68002B0DDA37
:101A0000BB683A68D3184FF02D021A70BB6803F117
:101A10000103BB607B68C3F100037B607B68002B24
:101A20000AD1BB683A68D3184FF030021A70BB680D
:101A300003F10103BB602CE042F2107427E07B68E5
:101A400093FBF4F5FB68002B01D1002D0EDDBB6884
:101A50003A68D318EAB202F13002D2B21A70BB6807
:101A600003F10103BB604FF00103FB6004FB05F3CE
:101A70007A68D31A7B6046F26763C6F2666383FBBB
:101A800004234FEAA3024FEAE473D31A1C46002C46
:101A9000D5DCBB683A68D3184FF000021A7007F122
:101AA0001407BD46B0BC704780B483B000AF786007
:101AB00003E07B6803F1FF337B607B684FEAC3037D
:101AC000002BF6DC07F10C07BD4680BC704700BF59
:101AD00080B485B000AF78604FF00003FB604FF436
:101AE0008053C4F202035B68FB60FB6823F440434D
:101AF000FB60FA687B681343FB604FF48053C4F2C9
:101B00000203FA685A6007F11407BD4680BC7047AB
:101B100080B483B000AF78600B46FB70FB78002B7D
:101B20000DD04FF48053C4F202034FF48052C4F23C
:101B30000202926911467A680A439A610EE04FF4F4
:101B40008053C4F202034FF48052C4F2020292693D
:101B500011467A686FEA02020A409A6107F10C079F
:101B6000BD4680BC704700BF80B483B000AF7860D2
:101B70000B46FB70FB78002B0DD04FF48053C4F262
:101B800002034FF48052C4F20202D26911467A680D
:101B90000A43DA610EE04FF48053C4F202034FF4BB
:101BA0008052C4F20202D26911467A686FEA0202D8
:101BB0000A40DA6107F10C07BD4680BC704700BFE0
:101BC00080B400AF4FF48063C4F201034FF0000211
:101BD0001A604FF48063C4F201034FF000025A60B0
:101BE0004FF48063C4F201034FF000029A604FF497
:101BF0008063C4F201034FF00002DA604FF48063A7
:101C0000C4F201034FF6FF72C0F20F025A61BD46E3
:101C100080BC704780B485B000AF78604FF000039F
:101C2000FB604FF48063C4F20103FB607B689B7927
:101C3000002B7ED04FF48063C4F201034FF4806226
:101C4000C4F20102126811467A6812686FEA020251
:101C50000A401A604FF48063C4F201034FF48062BB
:101C6000C4F20102526811467A6812686FEA0202F1
:101C70000A405A607B681B79FA68D318FB60FB68DE
:101C8000FA6811687A6812680A431A604FF4806330
:101C9000C4F201034FF48062C4F20102926811465B
:101CA0007A6812686FEA02020A409A604FF4806311
:101CB000C4F201034FF48062C4F20102D2681146FB
:101CC0007A6812686FEA02020A40DA607B685B7920
:101CD000102B1CD14FF48063C4F201034FF48062D7
:101CE000C4F20102926811467A6812680A439A6047
:101CF0004FF48063C4F201034FF48062C4F2010226
:101D0000D26811467A6812680A43DA601FE04FF41D
:101D10008063C4F20103FB607B685B79FA68D318C7
:101D2000FB60FB68FA6811687A6812680A431A60F7
:101D30000DE07B681B79FA68D318FB60FB68FA68D2
:101D400011687A6812686FEA02020A401A6007F1A5
:101D50001407BD4680BC704780B483B000AF786084
:101D60004FF48063C4F201037A685A6107F10C07EB
:101D7000BD4680BC704700BF80B485B000AF7860BE
:101D800039604FF00003FB604FF00003FB727B688B
:101D90005B68FB60FB6823F4702323F48073FB60B3
:101DA0003B681A683B681B794FEA03231343FA68C0
:101DB0001343FB607B68FA685A607B689B68FB6032
:101DC000FA684FF2FD73CFF6F1731340FB603B6886
:101DD000DA683B689B681A433B685B794FEA4303C8
:101DE0001343FA681343FB607B68FA689A607B6868
:101DF000DB6AFB60FB6823F47003FB603B681B7CC1
:101E000003F1FF33DAB2FB7A1343FB72FB7A4FEA3A
:101E10000353FA681343FB607B68FA68DA6207F1E0
:101E20001407BD4680BC704780B483B000AF7860B3
:101E30000B46FB70FB78002B06D07B689B6843F059
:101E400001027B689A6005E07B689B6823F00102D1
:101E50007B689A6007F10C07BD4680BC704700BFE5
:101E600080B483B000AF78607B689B6843F0080261
:101E70007B689A6007F10C07BD4680BC704700BFC5
:101E800080B485B000AF78604FF00003FB737B68CF
:101E90009B6803F00803002B03D04FF00103FB7392
:101EA00002E04FF00003FB73FB7B184607F11407B9
:101EB000BD4680BC704700BF80B483B000AF78607F
:101EC0007B689B6843F004027B689A6007F10C070B
:101ED000BD4680BC704700BF80B485B000AF78605D
:101EE0004FF00003FB737B689B6803F00403002B37
:101EF00003D04FF00103FB7302E04FF00003FB73CC
:101F0000FB7B184607F11407BD4680BC704700BF35
:101F100080B485B000AF7860F970BA707B704FF014
:101F20000003FB604FF00003BB60FB78092B27D94F
:101F30007B68DB68FB60FA7813464FEA43039B1823
:101F4000A3F11E034FF0070202FA03F3BB60BB6864
:101F50006FEA0303FA681340FB607978FA78134656
:101F60004FEA43039B18A3F11E0301FA03F3BB607E
:101F7000FA68BB681343FB607B68FA68DA6022E0AA
:101F80007B681B69FB60FA7813464FEA43039B1892
:101F90004FF0070202FA03F3BB60BB686FEA03036A
:101FA000FA681340FB607978FA7813464FEA4303E6
:101FB0009B1801FA03F3BB60FA68BB681343FB602C
:101FC0007B68FA681A61BB78062B27D87B685B6B45
:101FD000FB60BB7803F1FF3213464FEA83039B1883
:101FE0004FF01F0202FA03F3BB60BB686FEA030302
:101FF000FA681340FB60F978BB7803F1FF321346AF
:102000004FEA83039B1801FA03F3BB60FA68BB68CD
:102010001343FB607B68FA685A6351E0BB780C2B72
:1020200027D87B681B6BFB60BA7813464FEA8303A3
:102030009B18A3F123034FF01F0202FA03F3BB60C6
:10204000BB686FEA0303FA681340FB60F978BA785B
:1020500013464FEA83039B18A3F1230301FA03F30A
:10206000BB60FA68BB681343FB607B68FA681A635D
:1020700026E07B68DB6AFB60BA7813464FEA83038D
:102080009B18A3F141034FF01F0202FA03F3BB6058
:10209000BB686FEA0303FA681340FB60F978BA780B
:1020A00013464FEA83039B18A3F1410301FA03F39C
:1020B000BB60FA68BB681343FB607B68FA68DA624E
:1020C00007F11407BD4680BC704700BF80B483B0E1
:1020D00000AF78604FF46D43CEF200037A6842F0AF
:1020E000BE6242F42022DA6007F10C07BD4680BCD4
:1020F000704700BF80B487B000AF78604FF0000336
:102100007B614FF000033B614FF00F03FB607B6886
:10211000DB78002B47D04FF46D43CEF20003DB6831
:102120006FEA030303F4E0634FEA13237B617B69E7
:10213000C3F104033B617B69FA6822FA03F3FB6095
:102140007B685B781A463B6902FA03F37B617B6824
:102150009B781A46FB6813407A6913437B617B695D
:102160004FEA03137B614FF46143CEF200037A68B8
:10217000127811467A69D2B25B1883F800234FF4C3
:102180006143CEF200037A6812784FEA5212D2B25B
:102190007968097801F01F014FF0010000FA01F1A0
:1021A00043F8221014E04FF46143CEF200037A6842
:1021B00012784FEA5212D2B27968097801F01F0101
:1021C0004FF0010000FA01F102F1200243F8221061
:1021D00007F11C07BD4680BC704700BF30250000DA
:1021E00031302500323025003330250034302500D1
:1021F00035302500363025003730250038302500B1
:10220000393025003130302500000000506F7765EF
:1022100072000000496D70756C73657300000000FA
:1022200043757272656E7400496D703A000000006B
:10223000506572633A00000050657263656E747396
:04224000000000009A
:10224400DC210008E0210008E4210008E82100085E
:10225400EC210008F0210008F4210008F82100080E
:10226400FC210008002200080422000801000000EC
:102274000C220008142200080100000032000000B3
:102284002D00000028000000230000001E000000B4
:1022940019000000140000000F0000000A000000F4
:0C22A40005000000000000000100000028
:0400000508000000EF
:00000001FF
