:020000040800F2
:10000000FC0300202501000891010008910100086F
:100010009101000891010008910100080000000012
:100020000000000000000000000000009101000836
:1000300091010008000000009101000891010008F2
:100040009101000891010008910100089101000848
:100050009101000891010008910100089101000838
:100060009101000891010008910100089101000828
:100070009101000891010008910100089101000818
:1000800091010008910100089101000800000000A2
:1000900000000000000000000000000091010008C6
:1000A00091010008910100089101000891010008E8
:1000B00091010008910100089101000891010008D8
:1000C00091010008910100089101000891010008C8
:1000D00091010008910100089101000891010008B8
:1000E0009101000891010008910100080000000042
:1000F0000000000000000000000000000000000000
:1001000000000000000000000000000000000000EF
:1001100000000000000000009101000891010008AB
:100120005FF808F180B582B000AF40F6E063C0F63A
:1001300000037B6040F20003C2F200033B600BE06F
:100140007B681A683B681A603B6803F104033B60F4
:100150007B6803F104037B603A6840F20003C2F25B
:1001600000039A42ECD3084808494FF00002884245
:10017000B8BF40F8042BFADB00F00EF800F098FD51
:1001800007F10807BD4680BD0000002000000020E8
:1001900080B400AFFEE700BF80B500AF4FF48053DE
:1001A000C4F202034FF48052C4F20202126842F019
:1001B00001021A604FF48052C4F202024FF48053DD
:1001C000C4F202035B6819464FF00003CFF6FF0349
:1001D0000B4053604FF48053C4F202034FF480523B
:1001E000C4F20202126822F0847222F480321A6091
:1001F0004FF48053C4F202034FF48052C4F202025F
:10020000126822F480221A604FF48053C4F2020371
:100210004FF48052C4F20202526822F4FE025A6085
:100220004FF48053C4F202034FF41F029A604FF45C
:100230008053C4F202034FF00002DA6200F008F8C3
:100240004FF46D43CEF200034FF000629A6080BD20
:1002500080B500AF00F002F880BD00BF80B483B06D
:1002600000AF4FF000037B604FF000033B604FF4A2
:100270008053C4F202034FF48052C4F202021268A7
:1002800042F480321A604FF48053C4F202031B68B8
:1002900003F400333B607B6803F101037B603B6840
:1002A000002B03D17B68B3F5A06FECD14FF48053E2
:1002B000C4F202031B6803F40033002B03D04FF099
:1002C00001033B6002E04FF000033B603B68012B01
:1002D0006DD14FF48053C4F202034FF48052C4F244
:1002E000020252685A604FF48053C4F202034FF482
:1002F0008052C4F2020252685A604FF48053C4F232
:1003000002034FF48052C4F2020252685A604FF462
:100310008053C4F202034FF48052C4F202025268C6
:1003200022F47C125A604FF48053C4F202034FF45B
:100330008052C4F20202526842F498125A604FF49A
:100340008053C4F202034FF48052C4F202021268D6
:1003500042F080721A6000BF4FF48053C4F202036F
:100360001B6803F00073002BF6D04FF48053C4F2E7
:1003700002034FF48052C4F20202526822F00302D8
:100380005A604FF48053C4F202034FF48052C4F217
:100390000202526842F002025A6000BF4FF48053DA
:1003A000C4F202035B6803F00C03082BF6D107F1DB
:1003B0000C07BD4680BC704780B483B000AF0346D5
:1003C000FB71FB79A3F1A803572B00F2BB8101A2BB
:1003D00052F823F0650500084507000845070008A6
:1003E00045070008450700084507000845070008BD
:1003F00045070008450700084507000845070008AD
:10040000450700084507000845070008450700089C
:10041000450700086D060008450700084507000865
:10042000450700084507000845070008450700087C
:1004300045070008350500083D050008450500088A
:100440004D050008550500085D0500086D0500080C
:10045000750500087D050008850500088D05000864
:10046000950500089D050008A5050008AD050008D4
:10047000B5050008BD050008C5050008CD05000844
:10048000D5050008DD050008E5050008ED050008B4
:10049000F5050008FD050008050600080D06000822
:1004A000150600081D060008250600082D06000890
:1004B000350600083D060008450600084D06000800
:1004C000550600085D060008650600087506000868
:1004D0007D060008850600088D06000895060008C0
:1004E0009D060008A5060008AD060008B506000830
:1004F000BD060008C5060008CD060008D5060008A0
:10050000DD060008E5060008ED060008F50600080F
:10051000FD060008050700080D070008150700087C
:100520001D070008250700082D07000835070008EB
:100530003D0700084FF04103FB7103E14FF0A003BA
:10054000FB71FFE04FF04203FB71FBE04FF0A103B2
:10055000FB71F7E04FF0E003FB71F3E04FF0450370
:10056000FB71EFE04FF0A203FB71EBE04FF0A30350
:10057000FB71E7E04FF0A403FB71E3E04FF0A5034C
:10058000FB71DFE04FF0A603FB71DBE04FF04B03A4
:10059000FB71D7E04FF0A703FB71D3E04FF04D03A1
:1005A000FB71CFE04FF04803FB71CBE04FF04F03FE
:1005B000FB71C7E04FF0A803FB71C3E04FF050039D
:1005C000FB71BFE04FF04303FB71BBE04FF05403FE
:1005D000FB71B7E04FF0A903FB71B3E04FF0AA0342
:1005E000FB71AFE04FF05803FB71ABE04FF0E1035C
:1005F000FB71A7E04FF0AB03FB71A3E04FF0AC033E
:10060000FB719FE04FF0E203FB719BE04FF0AD0305
:10061000FB7197E04FF0AE03FB7193E04FF0620384
:10062000FB718FE04FF0AF03FB718BE04FF0B00335
:10063000FB7187E04FF0B103FB7183E04FF0610382
:10064000FB717FE04FF0B203FB717BE04FF0B3032F
:10065000FB7177E04FF0B403FB7173E04FF0E303FD
:10066000FB716FE04FF06503FB716BE04FF0A2038D
:10067000FB7167E04FF0B603FB7163E04FF0B70327
:10068000FB715FE04FF0B803FB715BE04FF0B90323
:10069000FB7157E04FF0BA03FB7153E04FF0BB031F
:1006A000FB714FE04FF0BC03FB714BE04FF0BD031B
:1006B000FB7147E04FF06F03FB7143E04FF0BE0367
:1006C000FB713FE04FF07003FB713BE04FF06303C1
:1006D000FB7137E04FF0BF03FB7133E04FF079035C
:1006E000FB712FE04FF0E403FB712BE04FF0780338
:1006F000FB7127E04FF0E503FB7123E04FF0C003EF
:10070000FB711FE04FF0C103FB711BE04FF0E603EC
:10071000FB7117E04FF0C203FB7113E04FF0C3030E
:10072000FB710FE04FF0C403FB710BE04FF0C5030A
:10073000FB7107E04FF0C603FB7103E04FF0C70306
:10074000FB7100BFFB79184607F10C07BD4680BC62
:10075000704700BF80B483B000AF42F210737B607B
:1007600003E07B6803F1FF337B607B68002BF8D1EB
:1007700007F10C07BD4680BC704700BF80B500AFD5
:100780004FF48053C4F201034FF48052C4F20102CB
:1007900052685A604FF48052C4F201024FF4805301
:1007A000C4F201031B68194641F21113C0F2110390
:1007B0000B4313604FF48053C4F201034FF4805293
:1007C000C4F2010252685A604FF48052C4F201022E
:1007D0004FF48053C4F201031B68194641F2111310
:1007E000CFF611730B40136000F070F84FF001006A
:1007F0004FF001014FF0000200F02CF800F020F85B
:100800004FF006004FF0000100F0CAF880BD00BFB5
:1008100080B582B000AF78600AE07B681B7818462C
:100820004FF0010100F0BCF87B6803F101037B602D
:100830007B681B78002BF0D107F10807BD4680BD0F
:1008400080B500AF4FF001004FF0000100F0A8F8B4
:1008500080BD00BF80B582B000AF13460246FA717A
:100860000A46BA717B71FB79002B06D14FF0080064
:100870004FF0000100F094F823E0BB79002B10D179
:100880007B79002B06D14FF00C004FF0000100F0F7
:1008900087F816E04FF00D004FF0000100F080F8EF
:1008A0000FE07B79002B06D14FF00E004FF00001D6
:1008B00000F076F805E04FF00F004FF0000100F077
:1008C0006FF807F10807BD4680BD00BF80B500AFD7
:1008D000FFF740FFFFF73EFFFFF73CFF4FF4805369
:1008E000C4F201034FF47C121A614FF48053C4F236
:1008F00001034FF008021A614FF48053C4F2010360
:100900004FF002021A61FFF725FF4FF48053C4F243
:1009100001034FF400321A61FFF71CFF4FF48053BC
:10092000C4F201034FF47C121A614FF48053C4F2F5
:1009300001034FF008021A614FF48053C4F201031F
:100940004FF002021A61FFF705FF4FF48053C4F223
:1009500001034FF400321A61FFF7FCFE4FF480539D
:10096000C4F201034FF47C121A614FF48053C4F2B5
:1009700001034FF020021A614FF48053C4F20103C7
:100980004FF002021A61FFF7E5FE4FF48053C4F204
:1009900001034FF400321A61FFF7DCFE80BD00BF97
:1009A00080B582B000AF02460B46FA71BB714FF4BE
:1009B0008053C4F201034FF47C121A61BB79002BFF
:1009C0000FD04FF48053C4F201034FF001021A61BB
:1009D000FB79A02B05D9FB791846FFF7EDFC034600
:1009E000FB71FB7903F01003002B06D04FF480530A
:1009F000C4F201034FF004021A61FB7903F02003F3
:100A0000002B06D04FF48053C4F201034FF00802CC
:100A10001A61FB7903F04003002B06D04FF480539A
:100A2000C4F201034FF010021A61FB795BB2002B94
:100A300006DA4FF48053C4F201034FF020021A612A
:100A40004FF48053C4F201034FF002021A61FFF722
:100A500081FE4FF48053C4F201034FF400321A6157
:100A6000FFF778FE4FF48053C4F201034FF4701285
:100A70001A61FB7903F00103DBB2002B06D04FF4BF
:100A80008053C4F201034FF004021A61FB7903F0B2
:100A90000203002B06D04FF48053C4F201034FF041
:100AA00008021A61FB7903F00403002B06D04FF40F
:100AB0008053C4F201034FF010021A61FB7903F076
:100AC0000803002B06D04FF48053C4F201034FF00B
:100AD00020021A614FF48053C4F201034FF0020266
:100AE0001A61FFF737FE4FF48053C4F201034FF44D
:100AF00000321A61FFF72EFE07F10807BD4680BDE0
:100B000080B489B000AF786039604FF00003FB61BA
:100B10004FF000033B614FF00003BB614FF0000357
:100B2000FB604FF000037B614FF00003BB603B684C
:100B3000DB7803F00F03FB613B68DB7803F0100305
:100B4000002B04D03B689B78FA691343FB613B6838
:100B50001B88DBB2002B4ED07B681B687B614FF09B
:100B60000003BB6141E0BB694FF0010202FA03F3ED
:100B7000FB603B681B881A46FB6813403B613A697F
:100B8000FB689A422DD1BB694FEA8303FB60FB6887
:100B90004FF00F0202FA03F3BB60BB686FEA030376
:100BA0007A6913407B61FB68FA6902FA03F37A6998
:100BB00013437B613B68DB78282B07D1BB694FF07F
:100BC000010202FA03F27B685A610AE03B68DB78B3
:100BD000482B06D1BB694FF0010202FA03F27B6891
:100BE0001A61BB6903F10103BB61BB69072BBAD969
:100BF0007B687A691A603B681B88FF2B53D97B6836
:100C00005B687B614FF00003BB6146E0BB6903F1A9
:100C100008034FF0010202FA03F3FB603B681B88F4
:100C20001A46FB6813403B613A69FB689A4230D12F
:100C3000BB694FEA8303FB60FB684FF00F0202FAC7
:100C400003F3BB60BB686FEA03037A6913407B61FF
:100C5000FB68FA6902FA03F37A6913437B613B6824
:100C6000DB78282B08D1BB6903F108034FF00102A0
:100C700002FA03F27B685A613B68DB78482B08D1A3
:100C8000BB6903F108034FF0010202FA03F27B682B
:100C90001A61BB6903F10103BB61BB69072BB5D9BD
:100CA0007B687A695A6007F12407BD4680BC7047AB
:100CB00080B500AF4FF01C004FF0010100F0B6F816
:100CC00000F014F8FFF75AFD4FF001004FF001015A
:100CD0004FF00102FFF7BEFD4FF0050000F03EF8B7
:100CE00003461846FFF794FDF6E700BF80B582B0D3
:100CF00000AF4FF02B03BB804FF00403FB7107F1F3
:100D000004034FF44060C4F201001946FFF7F8FEF7
:100D10004FF01003FB714FF00103BB714FF44073B0
:100D2000BB8007F104034FF48050C4F20100194660
:100D3000FFF7E6FE4FF00103BB804FF00403FB71A9
:100D400007F104034FF40060C4F201001946FFF7F5
:100D5000D7FE07F10807BD4680BD00BFB0B487B01D
:100D600000AF78604FF000037B614FF000033B6100
:100D700040F6DC63C0F60003FB607B68002B0DDAF5
:100D80003B69FA68D3184FF02D021A703B6903F1E2
:100D900001033B617B68C3F100037B607B68002B30
:100DA0000AD13B69FA68D3184FF030021A703B69D8
:100DB00003F101033B612CE042F2107427E07B68F1
:100DC00093FBF4F57B69002B01D1002D0EDD3B690F
:100DD000FA68D318EAB202F13002D2B21A703B6953
:100DE00003F101033B614FF001037B6104FB05F359
:100DF0007A68D31A7B6046F26763C6F2666383FB48
:100E000004234FEAA3024FEAE473D31A1C46002CD2
:100E1000D5DC3B69FA68D3184FF000021A70FB6802
:100E2000184607F11C07BD46B0BC704780B483B0BC
:100E300000AF78600B46FB70FB78002B0DD04FF4B1
:100E40008053C4F202034FF48052C4F2020292694A
:100E500011467A680A439A610EE04FF48053C4F257
:100E600002034FF48052C4F20202926911467A687A
:100E70006FEA02020A409A6107F10C07BD4680BC86
:100E8000704700BF3025000031302500323025008A
:100E9000333025003430250035302500363025002C
:100EA00037302500383025003930250031303025E5
:100EB00000000000506F7765720000005374657089
:100EC0007300000050657263656E7473000000006B
:100ED000496D70756C7365730000000000000000C0
:0400000508000000EF
:00000001FF
