:020000040800F2
:100000009404002081020008ED020008ED020008BF
:10001000ED020008ED020008ED02000800000000FB
:10002000000000000000000000000000ED020008D9
:10003000ED02000800000000ED020008ED020008DB
:10004000ED020008ED020008ED020008ED020008D4
:10005000ED020008ED020008ED020008ED020008C4
:10006000ED020008ED0200087D110008ED02000815
:10007000ED020008ED020008ED020008ED020008A4
:10008000ED020008ED020008ED020008000000008B
:10009000000000000000000000000000ED02000869
:1000A000ED020008ED020008ED020008ED02000874
:1000B000ED020008ED020008ED020008ED02000864
:1000C000ED020008ED020008ED020008ED02000854
:1000D000ED020008ED020008ED020008ED02000844
:1000E000ED020008ED020008ED020008000000002B
:1000F0000000000000000000000000000000000000
:1001000000000000000000000000000000000000EF
:100110000000000000000000ED020008ED020008F1
:100120005FF808F180B485B000AF786039604FF0B7
:100130000003FB817B681B88FB817A684FF4305396
:10014000C4F201039A421FD07A684FF45053C4F2AC
:1001500001039A4218D07B68B3F1804F14D07A68BB
:100160004FF48063C4F200039A420DD07A684FF4D2
:100170000063C4F200039A4206D07A684FF44063E9
:10018000C4F200039A4208D1FB8923F07003FB817B
:100190003B685A88FB891343FB817A684FF480538C
:1001A000C4F200039A420FD07A684FF4A053C4F20D
:1001B00000039A4208D0FB8923F44073FB813B681B
:1001C000DA88FB891343FB817B68FA891A803B68D4
:1001D0009A887B689A853B681A887B681A857A6852
:1001E0004FF43053C4F201039A421BD07A684FF4A3
:1001F0005053C4F201039A4214D07A684FF48043FA
:10020000C4F201039A420DD07A684FF48843C4F2D5
:1002100001039A4206D07A684FF49043C4F2010376
:100220009A4204D13B681B7A1A467B681A867B681F
:100230004FF001029A8207F11407BD4680BC704757
:1002400080B483B000AF78600B46FB70FB78002B66
:1002500008D07B681B889BB243F001039AB27B688D
:100260001A8007E07B681B889BB223F001039AB2D7
:100270007B681A8007F10C07BD4680BC704700BF41
:1002800080B582B000AF41F6B823C0F600037B60B2
:1002900040F20003C2F200033B600BE07B681A6887
:1002A0003B681A603B6803F104033B607B6803F121
:1002B00004037B603A6840F26C03C2F200039A4286
:1002C000ECD3084808494FF000028842B8BF40F814
:1002D000042BFADB00F00EF800F040FE07F10807EF
:1002E000BD4680BD6C0000209400002080B400AFAB
:1002F000FEE700BF80B500AF4FF48053C4F20203A5
:100300004FF48052C4F20202126842F001021A60F5
:100310004FF48052C4F202024FF48053C4F202033D
:100320005B6819464FF00003CFF6FF030B405360A4
:100330004FF48053C4F202034FF48052C4F202021D
:10034000126822F0847222F480321A604FF48053D3
:10035000C4F202034FF48052C4F20202126822F483
:1003600080221A604FF48053C4F202034FF480528B
:10037000C4F20202526822F4FE025A604FF4805323
:10038000C4F202034FF41F029A604FF48053C4F288
:1003900002034FF00002DA6200F008F84FF46D43F8
:1003A000CEF200034FF000629A6080BD80B500AFCE
:1003B00000F002F880BD00BF80B483B000AF4FF002
:1003C00000037B604FF000033B604FF48053C4F2A6
:1003D00002034FF48052C4F20202126842F48032E7
:1003E0001A604FF48053C4F202031B6803F4003315
:1003F0003B607B6803F101037B603B68002B03D10A
:100400007B68B3F5A06FECD14FF48053C4F20203C4
:100410001B6803F40033002B03D04FF001033B6053
:1004200002E04FF000033B603B68012B6DD14FF4BD
:100430008053C4F202034FF48052C4F202025268A5
:100440005A604FF48053C4F202034FF48052C4F256
:10045000020252685A604FF48053C4F202034FF410
:100460008052C4F2020252685A604FF48053C4F2C0
:1004700002034FF48052C4F20202526822F47C124A
:100480005A604FF48053C4F202034FF48052C4F216
:100490000202526842F498125A604FF48053C4F238
:1004A00002034FF48052C4F20202126842F08072DA
:1004B0001A6000BF4FF48053C4F202031B6803F0BC
:1004C0000073002BF6D04FF48053C4F202034FF4B4
:1004D0008052C4F20202526822F003025A604FF4C2
:1004E0008053C4F202034FF48052C4F202025268F5
:1004F00042F002025A6000BF4FF48053C4F202037C
:100500005B6803F00C03082BF6D107F10C07BD461E
:1005100080BC704780B483B000AF0346FB71FB79A9
:10052000A3F1A803572B00F2BB8101A252F823F0DC
:10053000C1060008A1080008A1080008A1080008D9
:10054000A1080008A1080008A1080008A1080008E7
:10055000A1080008A1080008A1080008A1080008D7
:10056000A1080008A1080008A1080008A1080008C7
:10057000C9070008A1080008A1080008A108000890
:10058000A1080008A1080008A1080008A1080008A7
:100590009106000899060008A1060008A9060008AF
:1005A000B1060008B9060008C9060008D10600080F
:1005B000D9060008E1060008E9060008F10600086F
:1005C000F9060008010700080907000811070008DC
:1005D000190700082107000829070008310700084B
:1005E00039070008410700084907000851070008BB
:1005F000590700086107000869070008710700082B
:10060000790700088107000889070008910700089A
:1006100099070008A1070008A9070008B10700080A
:10062000B9070008C1070008D1070008D90700086A
:10063000E1070008E9070008F1070008F9070008CA
:100640000108000809080008110800081908000836
:1006500021080008290800083108000839080008A6
:100660004108000849080008510800085908000816
:100670006108000869080008710800087908000886
:1006800081080008890800089108000899080008F6
:100690004FF04103FB7103E14FF0A003FB71FFE05A
:1006A0004FF04203FB71FBE04FF0A103FB71F7E059
:1006B0004FF0E003FB71F3E04FF04503FB71EFE017
:1006C0004FF0A203FB71EBE04FF0A303FB71E7E0F7
:1006D0004FF0A403FB71E3E04FF0A503FB71DFE0F3
:1006E0004FF0A603FB71DBE04FF04B03FB71D7E04B
:1006F0004FF0A703FB71D3E04FF04D03FB71CFE048
:100700004FF04803FB71CBE04FF04F03FB71C7E0A4
:100710004FF0A803FB71C3E04FF05003FB71BFE043
:100720004FF04303FB71BBE04FF05403FB71B7E0A4
:100730004FF0A903FB71B3E04FF0AA03FB71AFE0E8
:100740004FF05803FB71ABE04FF0E103FB71A7E002
:100750004FF0AB03FB71A3E04FF0AC03FB719FE0E4
:100760004FF0E203FB719BE04FF0AD03FB7197E0AC
:100770004FF0AE03FB7193E04FF06203FB718FE02B
:100780004FF0AF03FB718BE04FF0B003FB7187E0DC
:100790004FF0B103FB7183E04FF06103FB717FE029
:1007A0004FF0B203FB717BE04FF0B303FB7177E0D6
:1007B0004FF0B403FB7173E04FF0E303FB716FE0A4
:1007C0004FF06503FB716BE04FF0A203FB7167E034
:1007D0004FF0B603FB7163E04FF0B703FB715FE0CE
:1007E0004FF0B803FB715BE04FF0B903FB7157E0CA
:1007F0004FF0BA03FB7153E04FF0BB03FB714FE0C6
:100800004FF0BC03FB714BE04FF0BD03FB7147E0C1
:100810004FF06F03FB7143E04FF0BE03FB713FE00D
:100820004FF07003FB713BE04FF06303FB7137E067
:100830004FF0BF03FB7133E04FF07903FB712FE002
:100840004FF0E403FB712BE04FF07803FB7127E0DE
:100850004FF0E503FB7123E04FF0C003FB711FE095
:100860004FF0C103FB711BE04FF0E603FB7117E093
:100870004FF0C203FB7113E04FF0C303FB710FE0B5
:100880004FF0C403FB710BE04FF0C503FB7107E0B1
:100890004FF0C603FB7103E04FF0C703FB7100BFCD
:1008A000FB79184607F10C07BD4680BC704700BFB6
:1008B00080B483B000AF42F210737B6003E07B68CA
:1008C00003F1FF337B607B68002BF8D107F10C0745
:1008D000BD4680BC704700BF80B500AF4FF4805369
:1008E000C4F201034FF48052C4F2010252685A600C
:1008F0004FF48052C4F201024FF48053C4F201035A
:100900001B68194641F21113C0F211030B43136027
:100910004FF48053C4F201034FF48052C4F2010239
:1009200052685A604FF48052C4F201024FF480536F
:10093000C4F201031B68194641F21113CFF611737B
:100940000B40136000F092F84FF001004FF00101EE
:100950004FF0000200F04EF800F042F84FF00600B1
:100960004FF0000100F0ECF880BD00BF80B582B010
:1009700000AF02460B46FA71BB71BB79002B09D15F
:10098000FB7963F07F03DBB218464FF0000100F003
:10099000D7F808E0FB7963F03F03DBB218464FF06D
:1009A000000100F0CDF807F10807BD4680BD00BF8B
:1009B00080B582B000AF78600AE07B681B7818468B
:1009C0004FF0010100F0BCF87B6803F101037B608C
:1009D0007B681B78002BF0D107F10807BD4680BD6E
:1009E00080B500AF4FF001004FF0000100F0A8F813
:1009F00080BD00BF80B582B000AF13460246FA71D9
:100A00000A46BA717B71FB79002B06D14FF00800C2
:100A10004FF0000100F094F823E0BB79002B10D1D7
:100A20007B79002B06D14FF00C004FF0000100F055
:100A300087F816E04FF00D004FF0000100F080F84D
:100A40000FE07B79002B06D14FF00E004FF0000134
:100A500000F076F805E04FF00F004FF0000100F0D5
:100A60006FF807F10807BD4680BD00BF80B500AF35
:100A7000FFF71EFFFFF71CFFFFF71AFF4FF480532D
:100A8000C4F201034FF47C121A614FF48053C4F294
:100A900001034FF008021A614FF48053C4F20103BE
:100AA0004FF001021A61FFF703FF4FF48053C4F2C5
:100AB00001034FF480321A61FFF7FAFE4FF48053BE
:100AC000C4F201034FF47C121A614FF48053C4F254
:100AD00001034FF008021A614FF48053C4F201037E
:100AE0004FF001021A61FFF7E3FE4FF48053C4F2A6
:100AF00001034FF480321A61FFF7DAFE4FF480539E
:100B0000C4F201034FF47C121A614FF48053C4F213
:100B100001034FF020021A614FF48053C4F2010325
:100B20004FF001021A61FFF7C3FE4FF48053C4F285
:100B300001034FF480321A61FFF7BAFE80BD00BF97
:100B400080B582B000AF02460B46FA71BB714FF41C
:100B50008053C4F201034FF47C121A61BB79002B5D
:100B60000FD04FF48053C4F201034FF002021A6118
:100B7000FB79A02B05D9FB791846FFF7CBFC034680
:100B8000FB71FB7903F01003002B06D04FF4805368
:100B9000C4F201034FF004021A61FB7903F0200351
:100BA000002B06D04FF48053C4F201034FF008022B
:100BB0001A61FB7903F04003002B06D04FF48053F9
:100BC000C4F201034FF010021A61FB795BB2002BF3
:100BD00006DA4FF48053C4F201034FF020021A6189
:100BE0004FF48053C4F201034FF001021A61FFF782
:100BF0005FFE4FF48053C4F201034FF480321A6158
:100C0000FFF756FE4FF48053C4F201034FF4701205
:100C10001A61FB7903F00103DBB2002B06D04FF41D
:100C20008053C4F201034FF004021A61FB7903F010
:100C30000203002B06D04FF48053C4F201034FF09F
:100C400008021A61FB7903F00403002B06D04FF46D
:100C50008053C4F201034FF010021A61FB7903F0D4
:100C60000803002B06D04FF48053C4F201034FF069
:100C700020021A614FF48053C4F201034FF00102C5
:100C80001A61FFF715FE4FF48053C4F201034FF4CD
:100C900080321A61FFF70CFE07F10807BD4680BDE0
:100CA00080B489B000AF786039604FF00003FB6119
:100CB0004FF000033B614FF00003BB614FF00003B6
:100CC000FB604FF000037B614FF00003BB603B68AB
:100CD000DB7803F00F03FB613B68DB7803F0100364
:100CE000002B04D03B689B78FA691343FB613B6897
:100CF0001B88DBB2002B4ED07B681B687B614FF0FA
:100D00000003BB6141E0BB694FF0010202FA03F34B
:100D1000FB603B681B881A46FB6813403B613A69DD
:100D2000FB689A422DD1BB694FEA8303FB60FB68E5
:100D30004FF00F0202FA03F3BB60BB686FEA0303D4
:100D40007A6913407B61FB68FA6902FA03F37A69F6
:100D500013437B613B68DB78282B07D1BB694FF0DD
:100D6000010202FA03F27B685A610AE03B68DB7811
:100D7000482B06D1BB694FF0010202FA03F27B68EF
:100D80001A61BB6903F10103BB61BB69072BBAD9C7
:100D90007B687A691A603B681B88FF2B53D97B6894
:100DA0005B687B614FF00003BB6146E0BB6903F108
:100DB00008034FF0010202FA03F3FB603B681B8853
:100DC0001A46FB6813403B613A69FB689A4230D18E
:100DD000BB694FEA8303FB60FB684FF00F0202FA26
:100DE00003F3BB60BB686FEA03037A6913407B615E
:100DF000FB68FA6902FA03F37A6913437B613B6883
:100E0000DB78282B08D1BB6903F108034FF00102FE
:100E100002FA03F27B685A613B68DB78482B08D101
:100E2000BB6903F108034FF0010202FA03F27B6889
:100E30001A61BB6903F10103BB61BB69072BB5D91B
:100E40007B687A695A6007F12407BD4680BC704709
:100E500080B485B000AF78600B467B804FF0000314
:100E6000FB737B689B681A467B881340002B03D07A
:100E70004FF00103FB7302E04FF00003FB73FB7BB9
:100E8000184607F11407BD4680BC704780B483B094
:100E900000AF78600B467B807A887B685A6107F1E7
:100EA0000C07BD4680BC704790B484B000AF0246CA
:100EB0000B46FA71BB714FF00003FB60BB7903F086
:100EC00003034FEA83034FF00F0202FA03F3FB60C0
:100ED0004FF00003C4F20103BA794FEA9202D2B292
:100EE00010464FF00002C4F20102B9794FEA9101B5
:100EF000C9B201F1020152F821201146FA686FEAE5
:100F00000202114000F1020243F822104FF00003E8
:100F1000C4F20103BA794FEA9202D2B210464FF0FE
:100F20000002C4F20102B9794FEA9101C9B201F19C
:100F3000020152F821201146FC79BA7902F003022D
:100F40004FEA820204FA02F2114300F1020243F86E
:100F5000221007F11007BD4690BC704780B500AF66
:100F600000F05CF800F07EF800F0D8F8FFF7B4FC71
:100F70004FF001004FF001014FF00102FFF73AFD81
:100F800000F018F900F056F840F27003C2F20003C6
:100F90001A6840F23C03C2F2000353F822301846AC
:100FA00000F0D8F8FFF71CFD41F6A420C0F60000C1
:100FB000FFF7FEFC40F27803C2F200031A6840F229
:100FC0007403C2F200031B689A4201D100F0E6FBF1
:100FD0004FF000004FF00101FFF7C8FC4FF4105034
:100FE000C4F2010000F0A6FC03461A4640F2880352
:100FF000C2F200031A6040F28803C2F200031B68C9
:10100000184640F28C01C2F2000100F039FB40F2B8
:101010008C00C2F20000FFF7CBFCCBE780B500AF3D
:101020004FF01D00C0F201004FF0010100F08AFBFB
:1010300080BD00BF80B582B000AF4FF010033B60B1
:101040004FF000033B714FF010037B714FF0010331
:10105000BB713B46184600F0CBFB07F10807BD46C5
:1010600080BD00BF80B582B000AF47F60143BB80B2
:101070004FF00403FB7107F104034FF44060C4F226
:1010800001001946FFF70CFE4FF01003FB714FF003
:101090000103BB714FF44073BB8007F104034FF4AD
:1010A0008050C4F201001946FFF7FAFD4FF001032A
:1010B000BB804FF00403FB7107F104034FF40060A1
:1010C000C4F201001946FFF7EBFD4FF01003BB809F
:1010D0004FF00403FB7107F104034FF40060C4F206
:1010E00001001946FFF7DCFD4FF000004FF004014E
:1010F000FFF7DAFE4FF00203BB804FF00003FB71F5
:1011000007F104034FF40060C4F201001946FFF731
:10111000C7FD07F10807BD4680BD00BF80B582B09E
:1011200000AF4FF4A06000F013FC4FF00A033B71D6
:101130004FF002037B714FF00203BB714FF00103CC
:10114000FB7107F10403184600F016FC07F10807CD
:10115000BD4680BD80B586B000AF78607B689BB22D
:101160003B8207F10C034FF48040C4F201001946A2
:10117000FEF7D8FF07F11807BD4680BD80B500AF68
:101180004FF48040C4F201004FF00101FFF758F81E
:101190004FF48050C4F201004FF48071FFF776FEE7
:1011A0004FF48050C4F201004FF40071FFF76EFE5F
:1011B00080BD00BF80B500AFFAE040F22C03C2F260
:1011C00000031B68012B4DD140F26803C2F20003FB
:1011D0001B68012B46D1FFF703FC40F26C03C2F2FF
:1011E00000031A6840F23003C2F2000353F82230C1
:1011F0001846FFF7DDFB4FF000004FF00101FFF74D
:10120000B5FB40F27003C2F200031B68184640F2BF
:101210008C01C2F2000100F033FA40F28C00C2F2FD
:101220000000FFF7C5FB4FF003004FF00101FFF78F
:101230009DFB40F27403C2F200031B68184640F2A3
:101240008C01C2F2000100F01BFA40F28C00C2F2E5
:101250000000FFF7ADFB40F22C03C2F200034FF099
:1012600000021A604FF4006000F0ACF80346002B57
:101270002CD140F26803C2F200031B68012B25D178
:1012800040F26C03C2F200031B6803F1010240F25A
:101290006C03C2F200031A6040F26C03C2F2000356
:1012A0001A6840F23803C2F200031B689A4206DD56
:1012B00040F26C03C2F200034FF000021A6040F2E9
:1012C0002C03C2F200034FF001021A604FF4806059
:1012D00000F078F80346002B27D140F26803C2F2F1
:1012E00000031B68012B20D140F26C03C2F2000303
:1012F0001B6803F1FF3240F26C03C2F200031A6074
:1013000040F26C03C2F200031B68002B06DA40F2C5
:101310006C03C2F200034FF001021A6040F22C038A
:10132000C2F200034FF001021A604FF4805000F047
:1013300049F80346002B1FD140F26803C2F20003B4
:101340001B68012B18D1FFF74BFB40F26C03C2F274
:1013500000031B68002B02D0012B03D005E000F036
:1013600075F802E000F0FEF800BF40F22C03C2F274
:1013700000034FF001021A604FF4005000F022F811
:101380000346002B14D140F26803C2F200031B682D
:10139000012B0DD140F22C03C2F200034FF00102E9
:1013A0001A6040F26C03C2F200034FF000021A60B0
:1013B0004FF4804000F006F80346002B7FF4FDAEAA
:1013C00080BD00BF80B582B000AF78607B689BB203
:1013D0004FF44060C4F201001946FFF739FD03469F
:1013E000002B10D14FF00A0000F01AF87B689BB276
:1013F0004FF44060C4F201001946FFF729FD03468F
:10140000002B03D005E04FF0000304E04FF0010390
:1014100001E04FF00003184607F10807BD4680BD04
:1014200080B483B000AF786003E07B6803F1FF33E2
:101430007B607B684FF4FA5202FB03F3002BF4DC71
:1014400007F10C07BD4680BC704700BF80B584B073
:1014500000AF4FF00103FB604FF00003BB604FF0A3
:1014600000037B6040F26803C2F200034FF0000209
:101470001A60FFF7B5FA41F6AC20C0F60000FFF79E
:1014800097FA58E0FB68012B12D14FF003004FF0A0
:101490000101FFF76BFA40F20003C2F20003BA68E1
:1014A00053F822301846FFF783FA4FF00003FB6031
:1014B0004FF48060FFF786FF0346002B0CD1BB681A
:1014C00003F10103BB60BB68092B02DD4FF0000391
:1014D000BB604FF00103FB604FF40060FFF772FF49
:1014E0000346002B0CD1BB6803F1FF33BB60BB6824
:1014F000002B02DA4FF00903BB604FF00103FB60E1
:101500004FF48050FFF75EFF0346002B13D14FF4DA
:101510007A70FFF785FF4FF48050FFF753FF0346C3
:10152000002B08D14FF001037B60FFF759FA4FF40D
:101530007A70FFF775FF7B68002BA3D040F2700331
:10154000C2F20003BA681A6040F26803C2F20003F4
:101550004FF001021A60BB68184607F11007BD463C
:1015600080BD00BF80B584B000AF4FF00103FB60C9
:101570004FF00003BB6040F26803C2F200034FF07B
:1015800000021A604FF000037B60FFF729FA41F672
:101590009820C0F60000FFF70BFA5BE0FB68012B18
:1015A00015D14FF003004FF00101FFF7DFF9B868E4
:1015B00040F28C01C2F2000100F062F840F28C00AF
:1015C000C2F20000FFF7F4F94FF00003FB604FF4A4
:1015D0008060FFF7F7FE0346002B0CD1BB6803F1D8
:1015E0000103BB60BB68632B02DD4FF00003BB60EF
:1015F0004FF00103FB604FF40060FFF7E3FE03468A
:10160000002B0CD1BB6803F1FF33BB60BB68002B20
:1016100002DA4FF06303BB604FF00103FB604FF44D
:101620008050FFF7CFFE0346002B13D14FF47A70A2
:10163000FFF7F6FE4FF48050FFF7C4FE0346002B81
:1016400008D14FF001037B60FFF7CAF94FF47A70BD
:10165000FFF7E6FE7B68002BA0D040F26803C2F2E1
:1016600000034FF001021A6040F27403C2F200035B
:10167000BA681A60BB68184607F11007BD4680BDFE
:10168000B0B485B000AF786039604FF00003FB6004
:101690004FF00003BB607B68002B0DDABB683A6833
:1016A000D3184FF02D021A70BB6803F10103BB6021
:1016B0007B68C3F100037B607B68002B0AD1BB68A9
:1016C0003A68D3184FF030021A70BB6803F1010377
:1016D000BB602CE042F2107427E07B6893FBF4F5CA
:1016E000FB68002B01D1002D0EDDBB683A68D318D2
:1016F000EAB202F13002D2B21A70BB6803F1010300
:10170000BB604FF00103FB6004FB05F37A68D31A5A
:101710007B6046F26763C6F2666383FB04234FEA8D
:10172000A3024FEAE473D31A1C46002CD5DCBB6835
:101730003A68D3184FF000021A7007F11407BD463B
:10174000B0BC704780B483B000AF78600B46FB70CC
:10175000FB78002B0DD04FF48053C4F202034FF4FA
:101760008052C4F20202926911467A680A439A6171
:101770000EE04FF48053C4F202034FF48052C4F2DF
:101780000202926911467A686FEA02020A409A617F
:1017900007F10C07BD4680BC704700BF80B400AFA6
:1017A0004FF48063C4F201034FF000021A604FF45B
:1017B0008063C4F201034FF000025A604FF480636B
:1017C000C4F201034FF000029A604FF48063C4F248
:1017D00001034FF00002DA604FF48063C4F20103AA
:1017E0004FF6FF72C0F20F025A61BD4680BC7047CF
:1017F00080B485B000AF78604FF00003FB604FF419
:101800008063C4F20103FB607B689B79002B7ED070
:101810004FF48063C4F201034FF48062C4F201020A
:10182000126811467A6812686FEA02020A401A606A
:101830004FF48063C4F201034FF48062C4F20102EA
:10184000526811467A6812686FEA02020A405A60CA
:101850007B681B79FA68D318FB60FB68FA6811682B
:101860007A6812680A431A604FF48063C4F2010375
:101870004FF48062C4F20102926811467A681268DD
:101880006FEA02020A409A604FF48063C4F20103D7
:101890004FF48062C4F20102D26811467A6812687D
:1018A0006FEA02020A40DA607B685B79102B1CD178
:1018B0004FF48063C4F201034FF48062C4F201026A
:1018C000926811467A6812680A439A604FF48063FE
:1018D000C4F201034FF48062C4F20102D2681146DF
:1018E0007A6812680A43DA601FE04FF48063C4F23A
:1018F0000103FB607B685B79FA68D318FB60FB68C7
:10190000FA6811687A6812680A431A600DE07B6809
:101910001B79FA68D318FB60FB68FA6811687A686B
:1019200012686FEA02020A401A6007F11407BD4606
:1019300080BC704780B483B000AF78607B68DB6C9C
:101940009BB2184607F10C07BD4680BC704700BF2C
:1019500080B483B000AF78604FF46D43CEF20003E3
:101960007A6842F0BE6242F42022DA6007F10C0786
:10197000BD4680BC704700BF80B487B000AF7860C0
:101980004FF000037B614FF000033B614FF00F030A
:10199000FB607B68DB78002B47D04FF46D43CEF2C1
:1019A0000003DB686FEA030303F4E0634FEA1323E9
:1019B0007B617B69C3F104033B617B69FA6822FAAE
:1019C00003F3FB607B685B781A463B6902FA03F31A
:1019D0007B617B689B781A46FB6813407A691343E6
:1019E0007B617B694FEA03137B614FF46143CEF265
:1019F00000037A68127811467A69D2B25B1883F8CC
:101A000000234FF46143CEF200037A6812784FEA64
:101A10005212D2B27968097801F01F014FF001002B
:101A200000FA01F143F8221014E04FF46143CEF2C2
:101A300000037A6812784FEA5212D2B279680978B4
:101A400001F01F014FF0010000FA01F102F1200244
:101A500043F8221007F11C07BD4680BC704700BF49
:101A6000302500003130250032302500333025008C
:101A7000343025003530250036302500373025003C
:101A80003830250039302500313030250000000085
:101A9000506F776572000000496D70756C736573E7
:101AA0000000000043757272656E740050657263C9
:081AB000656E74730000000074
:101AB800601A0008641A0008681A00086C1A0008FE
:101AC800701A0008741A0008781A00087C1A0008AE
:101AD800801A0008841A0008881A0008010000000B
:101AE800901A0008981A0008010000000000000081
:101AF800050000000A0000000F00000014000000AC
:101B0800190000001E00000023000000280000004B
:0C1B18002D000000320000000100000061
:0400000508000000EF
:00000001FF
