:020000040800F2
:100000005404002025010008910100089101000816
:100010009101000891010008910100080000000012
:100020000000000000000000000000009101000836
:1000300091010008000000009101000891010008F2
:100040009101000891010008910100089101000848
:100050009101000891010008910100089101000838
:100060009101000891010008910100089101000828
:100070009101000891010008910100089101000818
:1000800091010008910100089101000800000000A2
:1000900000000000000000000000000091010008C6
:1000A00091010008910100089101000891010008E8
:1000B00091010008910100089101000891010008D8
:1000C00091010008910100089101000891010008C8
:1000D00091010008910100089101000891010008B8
:1000E0009101000891010008910100080000000042
:1000F0000000000000000000000000000000000000
:1001000000000000000000000000000000000000EF
:1001100000000000000000009101000891010008AB
:100120005FF808F180B582B000AF41F2BC23C0F6A1
:1001300000037B6040F20003C2F200033B600BE06F
:100140007B681A683B681A603B6803F104033B60F4
:100150007B6803F104037B603A6840F24003C2F21B
:1001600000039A42ECD3084808494FF00002884245
:10017000B8BF40F8042BFADB00F00EF800F0E6FD03
:1001800007F10807BD4680BD400000205400002054
:1001900080B400AFFEE700BF80B500AF4FF48053DE
:1001A000C4F202034FF48052C4F20202126842F019
:1001B00001021A604FF48052C4F202024FF48053DD
:1001C000C4F202035B6819464FF00003CFF6FF0349
:1001D0000B4053604FF48053C4F202034FF480523B
:1001E000C4F20202126822F0847222F480321A6091
:1001F0004FF48053C4F202034FF48052C4F202025F
:10020000126822F480221A604FF48053C4F2020371
:100210004FF48052C4F20202526822F4FE025A6085
:100220004FF48053C4F202034FF41F029A604FF45C
:100230008053C4F202034FF00002DA6200F008F8C3
:100240004FF46D43CEF200034FF000629A6080BD20
:1002500080B500AF00F002F880BD00BF80B483B06D
:1002600000AF4FF000037B604FF000033B604FF4A2
:100270008053C4F202034FF48052C4F202021268A7
:1002800042F480321A604FF48053C4F202031B68B8
:1002900003F400333B607B6803F101037B603B6840
:1002A000002B03D17B68B3F5A06FECD14FF48053E2
:1002B000C4F202031B6803F40033002B03D04FF099
:1002C00001033B6002E04FF000033B603B68012B01
:1002D0006DD14FF48053C4F202034FF48052C4F244
:1002E000020252685A604FF48053C4F202034FF482
:1002F0008052C4F2020252685A604FF48053C4F232
:1003000002034FF48052C4F2020252685A604FF462
:100310008053C4F202034FF48052C4F202025268C6
:1003200022F47C125A604FF48053C4F202034FF45B
:100330008052C4F20202526842F498125A604FF49A
:100340008053C4F202034FF48052C4F202021268D6
:1003500042F080721A6000BF4FF48053C4F202036F
:100360001B6803F00073002BF6D04FF48053C4F2E7
:1003700002034FF48052C4F20202526822F00302D8
:100380005A604FF48053C4F202034FF48052C4F217
:100390000202526842F002025A6000BF4FF48053DA
:1003A000C4F202035B6803F00C03082BF6D107F1DB
:1003B0000C07BD4680BC704780B483B000AF0346D5
:1003C000FB71FB79A3F1A803572B00F2BB8101A2BB
:1003D00052F823F0650500084507000845070008A6
:1003E00045070008450700084507000845070008BD
:1003F00045070008450700084507000845070008AD
:10040000450700084507000845070008450700089C
:10041000450700086D060008450700084507000865
:10042000450700084507000845070008450700087C
:1004300045070008350500083D050008450500088A
:100440004D050008550500085D0500086D0500080C
:10045000750500087D050008850500088D05000864
:10046000950500089D050008A5050008AD050008D4
:10047000B5050008BD050008C5050008CD05000844
:10048000D5050008DD050008E5050008ED050008B4
:10049000F5050008FD050008050600080D06000822
:1004A000150600081D060008250600082D06000890
:1004B000350600083D060008450600084D06000800
:1004C000550600085D060008650600087506000868
:1004D0007D060008850600088D06000895060008C0
:1004E0009D060008A5060008AD060008B506000830
:1004F000BD060008C5060008CD060008D5060008A0
:10050000DD060008E5060008ED060008F50600080F
:10051000FD060008050700080D070008150700087C
:100520001D070008250700082D07000835070008EB
:100530003D0700084FF04103FB7103E14FF0A003BA
:10054000FB71FFE04FF04203FB71FBE04FF0A103B2
:10055000FB71F7E04FF0E003FB71F3E04FF0450370
:10056000FB71EFE04FF0A203FB71EBE04FF0A30350
:10057000FB71E7E04FF0A403FB71E3E04FF0A5034C
:10058000FB71DFE04FF0A603FB71DBE04FF04B03A4
:10059000FB71D7E04FF0A703FB71D3E04FF04D03A1
:1005A000FB71CFE04FF04803FB71CBE04FF04F03FE
:1005B000FB71C7E04FF0A803FB71C3E04FF050039D
:1005C000FB71BFE04FF04303FB71BBE04FF05403FE
:1005D000FB71B7E04FF0A903FB71B3E04FF0AA0342
:1005E000FB71AFE04FF05803FB71ABE04FF0E1035C
:1005F000FB71A7E04FF0AB03FB71A3E04FF0AC033E
:10060000FB719FE04FF0E203FB719BE04FF0AD0305
:10061000FB7197E04FF0AE03FB7193E04FF0620384
:10062000FB718FE04FF0AF03FB718BE04FF0B00335
:10063000FB7187E04FF0B103FB7183E04FF0610382
:10064000FB717FE04FF0B203FB717BE04FF0B3032F
:10065000FB7177E04FF0B403FB7173E04FF0E303FD
:10066000FB716FE04FF06503FB716BE04FF0A2038D
:10067000FB7167E04FF0B603FB7163E04FF0B70327
:10068000FB715FE04FF0B803FB715BE04FF0B90323
:10069000FB7157E04FF0BA03FB7153E04FF0BB031F
:1006A000FB714FE04FF0BC03FB714BE04FF0BD031B
:1006B000FB7147E04FF06F03FB7143E04FF0BE0367
:1006C000FB713FE04FF07003FB713BE04FF06303C1
:1006D000FB7137E04FF0BF03FB7133E04FF079035C
:1006E000FB712FE04FF0E403FB712BE04FF0780338
:1006F000FB7127E04FF0E503FB7123E04FF0C003EF
:10070000FB711FE04FF0C103FB711BE04FF0E603EC
:10071000FB7117E04FF0C203FB7113E04FF0C3030E
:10072000FB710FE04FF0C403FB710BE04FF0C5030A
:10073000FB7107E04FF0C603FB7103E04FF0C70306
:10074000FB7100BFFB79184607F10C07BD4680BC62
:10075000704700BF80B483B000AF42F210737B607B
:1007600003E07B6803F1FF337B607B68002BF8D1EB
:1007700007F10C07BD4680BC704700BF80B500AFD5
:100780004FF48053C4F201034FF48052C4F20102CB
:1007900052685A604FF48052C4F201024FF4805301
:1007A000C4F201031B68194641F21113C0F2110390
:1007B0000B4313604FF48053C4F201034FF4805293
:1007C000C4F2010252685A604FF48052C4F201022E
:1007D0004FF48053C4F201031B68194641F2111310
:1007E000CFF611730B40136000F092F84FF0010048
:1007F0004FF001014FF0000200F04EF800F042F817
:100800004FF006004FF0000100F0ECF880BD00BF93
:1008100080B582B000AF02460B46FA71BB71BB795E
:10082000002B09D1FB7963F07F03DBB218464FF050
:10083000000100F0D7F808E0FB7963F03F03DBB27A
:1008400018464FF0000100F0CDF807F10807BD464B
:1008500080BD00BF80B582B000AF78600AE07B68E1
:100860001B7818464FF0010100F0BCF87B6803F1DB
:1008700001037B607B681B78002BF0D107F1080730
:10088000BD4680BD80B500AF4FF001004FF00001C4
:1008900000F0A8F880BD00BF80B582B000AF13465D
:1008A0000246FA710A46BA717B71FB79002B06D1B8
:1008B0004FF008004FF0000100F094F823E0BB79FE
:1008C000002B10D17B79002B06D14FF00C004FF09C
:1008D000000100F087F816E04FF00D004FF0000126
:1008E00000F080F80FE07B79002B06D14FF00E006E
:1008F0004FF0000100F076F805E04FF00F004FF0E8
:10090000000100F06FF807F10807BD4680BD00BF89
:1009100080B500AFFFF71EFFFFF71CFFFFF71AFFC0
:100920004FF48053C4F201034FF47C121A614FF468
:100930008053C4F201034FF008021A614FF4805350
:10094000C4F201034FF002021A61FFF703FF4FF4F4
:100950008053C4F201034FF400321A61FFF7FAFE2C
:100960004FF48053C4F201034FF47C121A614FF428
:100970008053C4F201034FF008021A614FF4805310
:10098000C4F201034FF002021A61FFF7E3FE4FF4D5
:100990008053C4F201034FF400321A61FFF7DAFE0C
:1009A0004FF48053C4F201034FF47C121A614FF4E8
:1009B0008053C4F201034FF020021A614FF48053B8
:1009C000C4F201034FF002021A61FFF7C3FE4FF4B5
:1009D0008053C4F201034FF400321A61FFF7BAFEEC
:1009E00080BD00BF80B582B000AF02460B46FA71F1
:1009F000BB714FF48053C4F201034FF47C121A61AF
:100A0000BB79002B0FD04FF48053C4F201034FF099
:100A100001021A61FB79A02B05D9FB791846FFF773
:100A2000CBFC0346FB71FB7903F01003002B06D0CF
:100A30004FF48053C4F201034FF004021A61FB79B2
:100A400003F02003002B06D04FF48053C4F20103BF
:100A50004FF008021A61FB7903F04003002B06D027
:100A60004FF48053C4F201034FF010021A61FB7976
:100A70005BB2002B06DA4FF48053C4F201034FF04F
:100A800020021A614FF48053C4F201034FF00202B6
:100A90001A61FFF75FFE4FF48053C4F201034FF475
:100AA00000321A61FFF756FE4FF48053C4F201037F
:100AB0004FF470121A61FB7903F00103DBB2002BD3
:100AC00006D04FF48053C4F201034FF004021A61C0
:100AD000FB7903F00203002B06D04FF48053C4F2DD
:100AE00001034FF008021A61FB7903F00403002BA5
:100AF00006D04FF48053C4F201034FF010021A6184
:100B0000FB7903F00803002B06D04FF48053C4F2A6
:100B100001034FF020021A614FF48053C4F2010325
:100B20004FF002021A61FFF715FE4FF48053C4F232
:100B300001034FF400321A61FFF70CFE07F10807BA
:100B4000BD4680BD80B489B000AF786039604FF099
:100B50000003FB614FF000033B614FF00003BB61FA
:100B60004FF00003FB604FF000037B614FF0000388
:100B7000BB603B68DB7803F00F03FB613B68DB780D
:100B800003F01003002B04D03B689B78FA691343F1
:100B9000FB613B681B88DBB2002B4ED07B681B6877
:100BA0007B614FF00003BB6141E0BB694FF0010284
:100BB00002FA03F3FB603B681B881A46FB6813408C
:100BC0003B613A69FB689A422DD1BB694FEA8303C6
:100BD000FB60FB684FF00F0202FA03F3BB60BB68D7
:100BE0006FEA03037A6913407B61FB68FA6902FAD2
:100BF00003F37A6913437B613B68DB78282B07D1C9
:100C0000BB694FF0010202FA03F27B685A610AE005
:100C10003B68DB78482B06D1BB694FF0010202FA32
:100C200003F27B681A61BB6903F10103BB61BB6915
:100C3000072BBAD97B687A691A603B681B88FF2B3F
:100C400053D97B685B687B614FF00003BB6146E072
:100C5000BB6903F108034FF0010202FA03F3FB60E2
:100C60003B681B881A46FB6813403B613A69FB6886
:100C70009A4230D1BB694FEA8303FB60FB684FF0B7
:100C80000F0202FA03F3BB60BB686FEA03037A69E1
:100C900013407B61FB68FA6902FA03F37A69134334
:100CA0007B613B68DB78282B08D1BB6903F1080323
:100CB0004FF0010202FA03F27B685A613B68DB786D
:100CC000482B08D1BB6903F108034FF0010202FA77
:100CD00003F27B681A61BB6903F10103BB61BB6965
:100CE000072BB5D97B687A695A6007F12407BD469E
:100CF00080BC704780B485B000AF78600B467B80C5
:100D00004FF00003FB737B689B681A467B88134097
:100D1000002B03D04FF00103FB7302E04FF0000300
:100D2000FB73FB7B184607F11407BD4680BC704778
:100D300080B483B000AF78600B467B807A887B6894
:100D40001A6107F10C07BD4680BC704780B500AF43
:100D50004FF01C004FF0010100F058FA00F016F8B7
:100D6000FFF70CFD4FF001004FF001014FF00102C1
:100D7000FFF792FD00F042F84FF48050C4F20100FA
:100D80004FF48071FFF7D4FFF4E700BF80B582B065
:100D900000AF40F22F23BB804FF00403FB7107F13B
:100DA00004034FF44060C4F201001946FFF7CAFE85
:100DB0004FF01003FB714FF00103BB714FF4407310
:100DC000BB8007F104034FF48050C4F201001946C0
:100DD000FFF7B8FE4FF00103BB804FF00403FB7137
:100DE00007F104034FF40060C4F201001946FFF755
:100DF000A9FE07F10807BD4680BD00BF80B500AF62
:100E000040F22C03C2F200031B68012B1DD140F2FB
:100E10003C03C2F200031B68012B16D1FFF732FD21
:100E200040F24003C2F200031A6840F23003C2F2FB
:100E3000000353F822301846FFF70CFD40F22C0354
:100E4000C2F200034FF000021A604FF0020000F0FF
:100E500083F80346002B2CD040F23C03C2F200037F
:100E60001B68012B25D140F24003C2F200031B682E
:100E700003F1010240F24003C2F200031A6040F2A3
:100E80004003C2F200031A6840F23803C2F20003C2
:100E90001B689A4206DD40F24003C2F200034FF0A5
:100EA00000021A6040F22C03C2F200034FF001026C
:100EB0001A604FF0200000F04FF80346002B27D0B7
:100EC00040F23C03C2F200031B68012B20D140F228
:100ED0004003C2F200031B6803F1FF3240F24003FB
:100EE000C2F200031A6040F24003C2F200031B6822
:100EF000002B06DA40F24003C2F200034FF0010279
:100F00001A6040F22C03C2F200034FF001021A6093
:100F10004FF44060C4F201004FF40071FFF7EAFEA5
:100F20000346002B16D140F23C03C2F200031B68BB
:100F3000012B0FD1FFF7A6FC40F24003C2F20003E1
:100F40001B68002B02D0012B02D003E000F048F810
:100F500000F09EF880BD00BF80B582B000AF786021
:100F60007B689BB24FF44060C4F201001946FFF762
:100F7000C1FE0346002B10D14FF00A0000F01AF812
:100F80007B689BB24FF44060C4F201001946FFF742
:100F9000B1FE0346002B03D005E04FF0000304E050
:100FA0004FF0010301E04FF00003184607F1080776
:100FB000BD4680BD80B483B000AF786003E07B683D
:100FC00003F1FF337B607B684FF4FA5202FB03F3BB
:100FD000002BF4DB07F10C07BD4680BC704700BF57
:100FE00080B582B000AF4FF001037B604FF000038B
:100FF0003B6040F23C03C2F200034FF000021A6073
:10100000FFF740FC41F2A420C0F60000FFF722FCED
:101010002DE07B68012B12D14FF003004FF001014E
:10102000FFF7F6FB40F20003C2F200033A6853F800
:1010300022301846FFF70EFC4FF000037B604FF4A0
:101040000060C4F201004FF00101FFF753FE0346B8
:10105000002B0CD03B6803F101033B603B68092B7C
:1010600002DD4FF000033B604FF001037B604FF463
:101070004060C4F201004FF00101FFF73BFE034660
:10108000002BC6D13B68184607F10807BD4680BD56
:1010900080B582B000AF4FF001037B604FF00003DA
:1010A0003B6040F23C03C2F200034FF000021A60C2
:1010B000FFF7E8FB41F2B020C0F60000FFF7CAFBE3
:1010C00030E07B68012B15D14FF003004FF0010198
:1010D000FFF79EFB386840F24C01C2F2000100F0BD
:1010E00033F840F24C00C2F20000FFF7B3FB4FF0C0
:1010F00000037B604FF40060C4F201004FF0010177
:10110000FFF7F8FD0346002B0CD03B6803F1010309
:101110003B603B68632B02DD4FF000033B604FF008
:1011200001037B604FF44060C4F201004FF0010105
:10113000FFF7E0FD0346002BC3D13B68184607F1DB
:101140000807BD4680BD00BFB0B485B000AF786071
:1011500039604FF00003FB604FF00003BB607B6819
:10116000002B0DDABB683A68D3184FF02D021A70C5
:10117000BB6803F10103BB607B68C3F100037B60C4
:101180007B68002B0AD1BB683A68D3184FF0300255
:101190001A70BB6803F10103BB602CE042F21074CB
:1011A00027E07B6893FBF4F5FB68002B01D1002D51
:1011B0000EDDBB683A68D318EAB202F13002D2B24F
:1011C0001A70BB6803F10103BB604FF00103FB60C1
:1011D00004FB05F37A68D31A7B6046F26763C6F2B4
:1011E000666383FB04234FEAA3024FEAE473D31A36
:1011F0001C46002CD5DCBB683A68D3184FF00002BF
:101200001A7007F11407BD46B0BC704780B483B0B4
:1012100000AF78600B46FB70FB78002B0DD04FF4CD
:101220008053C4F202034FF48052C4F20202926966
:1012300011467A680A439A610EE04FF48053C4F273
:1012400002034FF48052C4F20202926911467A6896
:101250006FEA02020A409A6107F10C07BD4680BCA2
:10126000704700BF302500003130250032302500A6
:101270003330250034302500353025003630250048
:101280003730250038302500393025003130302501
:1012900000000000506F77657200000053746570A5
:1012A0007300000050657263656E74730000000087
:0C12B000496D70756C73657300000000E0
:1012BC0064120008681200086C1200087012000812
:1012CC0074120008781200087C12000880120008C2
:1012DC0084120008881200088C120008010000001B
:1012EC00941200089C12000801000000010000008C
:0400000508000000EF
:00000001FF
